:020000040800F2
:10000000000002203D3700080D1D00080F1D0008EC
:10001000111D0008131D0008151D00080000000038
:10002000000000000000000000000000171D000894
:10003000191D0008000000001B1D00081D1D000800
:100040008D3700088D3700088D3700088D37000880
:100050008D3700088D3700088D3700088D37000870
:100060008D3700088D3700088D3700088D37000860
:100070008D3700088D3700088D3700088D37000850
:100080008D3700088D3700088D3700088D37000840
:100090008D3700088D3700088D3700088D37000830
:1000A0008D3700088D3700088D3700088D37000820
:1000B0008D3700088D3700088D3700088D37000810
:1000C0008D3700088D3700088D3700088D37000800
:1000D0008D3700088D370008251D00088D37000872
:1000E0008D3700088D3700088D3700088D370008E0
:1000F0008D3700088D3700088D3700088D370008D0
:100100008D3700088D3700088D3700088D370008BF
:100110008D3700088D3700088D3700088D370008AF
:100120008D3700088D3700088D3700088D3700089F
:100130008D37000800000000000000008D37000827
:100140008D3700088D3700088D3700088D3700087F
:100150008D3700088D3700088D3700088D3700086F
:100160008D3700088D3700088D3700088D3700085F
:100170008D3700088D3700088D370008000000001B
:10018000000000008D3700080000000000000000A3
:100190008D37000800000000000000008D370008C7
:1001A0000000000000000000000000008D37000883
:1001B0008D3700088D3700088D3700088D3700080F
:0401C0008D3700086F
:1001D0000348044B834202D0034B03B118477047D6
:1001E0007000002070000020000000000548064953
:1001F0000B1AD90F01EBA301491002D0034B03B135
:1002000018477047700000207000002000000000B8
:1002100010B5064C237843B9FFF7DAFF044B13B14E
:100220000448AFF300800123237010BD700000204C
:10023000000000009037000808B5044B1BB10449CA
:100240000448AFF30080BDE80840CFE7000000009D
:1002500074000020903700080A22002100F0AEB997
:100260000A23002200F08AB970B50D4E0D4D761BA1
:10027000B61006D0002455F8043B01349847A64236
:10028000F9D1094E094D761B03F082FAB61006D05B
:10029000002455F8043B01349847A642F9D170BDBB
:1002A000D0390008D0390008D4390008D039000806
:1002B000830730B548D0541E002A3FD0CAB2034647
:1002C00001E0013C3AD303F8012B9D07F9D1032C3F
:1002D0002DD9CDB245EA05250F2C45EA054536D97D
:1002E000A4F1100222F00F0C03F1200EE6444FEAB5
:1002F000121C03F1100242E9045542E90255103282
:100300007245F8D10CF1010214F00C0F03EB02124C
:1003100004F00F0C13D0ACF1040323F003030433F7
:10032000134442F8045B9342FBD10CF003042CB15C
:10033000CAB21C4403F8012B9C42FBD130BD644679
:100340001346002CF4D1F9E703461446BFE71A46DA
:10035000A446E0E708B410B5002A9DB0044633DB9C
:100360004FF40273ADF814300291069120AB17D010
:10037000013A4FF6FF7104920792ADF816101F9ADA
:10038000019302A900F012FA421C01DA8B232360C8
:10039000029B00221A701DB0BDE8104001B07047EA
:1003A0004FF6FF7104920792ADF816101F9A019351
:1003B00002A900F0FBF9431C01DA8B2323601DB076
:1003C000BDE8104001B070478B2303604FF0FF3051
:1003D000F5E700BF0CB410B51F4B00291C689CB09A
:1003E00035DB4FF40273ADF81430029006901FAB6A
:1003F00018D001394FF6FF7204910791ADF816201D
:1004000002A91E9A0193204600F0D0F9421C01DA9D
:100410008B232360029B00221A701CB0BDE81040A1
:1004200002B070474FF6FF7204910791ADF81620A5
:1004300002A91E9A0193204600F0B8F9431C01DA84
:100440008B2323601CB0BDE8104002B070478B23A3
:1004500023604FF0FF30F5E7000000202DE9F04F5A
:10046000814645488E4675461EF801CB10F80C4073
:1004700014F00804F7D1BCF12D0FE34654D0BCF1C1
:100480002B0F08BF9EF800B06FF0004808BF05F1C1
:10049000020E1BB1102B4FD01F4604E0BBF1300FF2
:1004A00055D00A231F460025B8FBF7F6284607FB60
:1004B000168A07E0864215D329D007FB00C0012524
:1004C0001EF801BBABF1300CBCF1090F06D9ABF142
:1004D000410CBCF1190F08D8ABF1370C63450DDDA9
:1004E000002DE7DA4FF0FF35EAE7ABF1610CBCF124
:1004F000190F03D8ABF1570C6345F1DC002D0BDB72
:1005000004B140420AB195BB1160BDE8F08FE245ED
:10051000D3DA4FF0FF35D3E72223C9F800301AB3FE
:100520000EF1FF314046EFE79EF800B04FF0004873
:1005300005F1020E0124ACE7BBF1300FACD19EF8FF
:10054000000000F0DF00582807D01F46ABE79EF8F8
:10055000003003F0DF03582B0BD110279EF801B0B9
:100560003B460EF1020E9EE74046BDE8F08F804606
:10057000D6E708231F4696E7A9370008012B02D0CB
:10058000242B00D86AE710B500F02CF8162303607E
:10059000002010BD012A08D0242A06D88446064827
:1005A000134600680A46614658E710B500F01AF88D
:1005B00016230360002010BD00000020012A08D08F
:1005C000242A06D884460648134600680A4661462F
:1005D00044E710B500F006F816230360002010BDB4
:1005E00000000020014B1868704700BF0000002089
:1005F0002DE9F0478F689F420C461D46164638D8B5
:100600008246888910F4906F0ED108683D462A46CC
:10061000314600F0BFFCA2682368D21B2B44A260C5
:1006200023600020BDE8F0874B69096903EB4308AC
:10063000236808EBD878A3EB01096B1C4FEA680824
:100640004B444345424684BF98464246430513D532
:100650001146504600F07CFD074608B321694A4622
:1006600000F0FEFBA38923F4906343F08003A38191
:1006700007E008681F46CAE7504600F0C3FD07467A
:1006800050B107EB0900A8EB09032761C4F81480F7
:10069000A36020602F46BAE72169504600F0F6FCBF
:1006A0000C23CAF80030A38943F040034FF0FF3019
:1006B000A381B7E72DE9F04F936883B09146002BF3
:1006C0006ED017688D6880460C460868083744E08D
:1006D000A38913F4906F2ED0D4E90415A0EB010A7E
:1006E00005EB450505EBD5750AEB06006D100130ED
:1006F000A8422A4684BF05462A465B0537D51146DF
:10070000404600F025FD00283BD05246216901906B
:1007100000F0A6FBA289019B22F4906242F08002C5
:10072000A281A5EB0A0203EB0A006561A2602361C6
:1007300020603546B2465946524600F02BFCA06870
:10074000D9F808102368451B8E1B03EB0A00A5602F
:100750002060C9F808601EB3083757E902B6002EBA
:10076000FAD0B542AA46B3D93546B246E3E7404689
:1007700000F048FD03460028D3D12169404600F02F
:1007800085FC0C23C8F80030A389002243F0400305
:100790004FF0FF30A381C9E9012203B0BDE8F08F1B
:1007A0000020C9F8040003B0BDE8F08F2DE9F04F38
:1007B00092468A8915069DB0884681461C4603D517
:1007C0000A69002A00F0EF80002209929AF80030AE
:1007D0007E4D039420228DF8292030228DF82A2086
:1007E0000126002B72D0544603E014F8013F002B81
:1007F00076D0252BF9D1B4EB0A0B74D12278002ADC
:1008000064D000234FF0FF32CDE905230493079312
:100810008DF853301A93013404E0049A06FA03F376
:1008200013430493A246052214F8011B284600F046
:10083000C7FA431B0028F0D1049BD80644BF2022EE
:100840008DF8532019079AF8001044BF2B228DF819
:1008500053202A2954D1039A1168043200290392A3
:100860007CDB07919AF801100AF1010A2E2959D070
:10087000574C0322204600F0A3FA40B1049B001B12
:10088000402404FA00F0034304930AF1010A1AF821
:10089000011B50488DF82810062200F091FA00281C
:1008A00062D04D4B002B52D003AA00924B4B4246D4
:1008B00004A94846AFF3008007467A1C06D0099B7E
:1008C0003B4409939AF80030002B8CD1B8F80C30D7
:1008D0005B0654BF09984FF0FF301DB0BDE8F08FA4
:1008E000B4EB0A0BF2D05B46524641464846FFF74E
:1008F0007FFE0130EAD0099B22785B4409937EE7B2
:10090000A1F13002092AB1D8079B1AF8011F03EBA5
:10091000830302EB4303A1F13002092AF5D92E2902
:100920000793A5D19AF801102A2927D1039B9AF899
:1009300002101A6805920433002A0AF10200039398
:10094000B8BF4FF0FF338246B8BF059390E7039BD3
:10095000073323F0070308330393B0E7494243F01A
:100960000203079104937DE703AA00921B4B4246C2
:1009700004A9484600F0CAF807469EE7A1F13002F4
:100980000023092A05930AF1010A3FF671AF1AF80C
:10099000011F03EB830302EB4303A1F13002092A99
:1009A000F5D9059364E7402100F0D2FBC8F80000B8
:1009B000C8F8100018B14022C8F8142004E70C232E
:1009C000C9F800304FF0FF3087E700BF8C390008CE
:1009D000943900089839000800000000F10500086B
:1009E0002DE9F84F92461F460A698B68DDF828907A
:1009F0009A42B8BF1A46CAF8002091F843300C4614
:100A0000064613B10132CAF80020226891065DD56E
:100A1000DAF800300233CAF80030226812F0060F0C
:100A200011461ED1E168CB1A002BD8BF114618DD44
:100A300004F1190B4FF0000805E0E568DAF8003022
:100A4000ED1A45450CDD01235A4639463046C84764
:100A5000013008F10108F0D14FF0FF30BDE8F88F08
:100A6000216894F84330003B18BF01238A060AD559
:100A7000E1185A1C302081F84300224494F84510B4
:100A800082F84310023304F1430239463046C84726
:100A90000130E1D0236803F00603042B1DD0A368C6
:100AA0002269934225DD4FF000089B1A98441A34BE
:100AB000002501E045451CDA01232246394630462F
:100AC000C847013005F10105F4D1C5E712F0060F62
:100AD00012D0003B18BF0123D5E7DAF80030E168F7
:100AE0002269C91AA368934221EAE178DDDC002972
:100AF000DDDC0020BDE8F88FE168DAF80030CB1AC1
:100B0000002BD8BF114693DCABE700BF2DE9F047BF
:100B10000C4684B09046227E0C990746994604F113
:100B20004300002A33D0A2F15803DDB2202D67D84C
:100B3000202B65D8DFE813F0DE0064006400640059
:100B40006400640064006400640064006400A30046
:100B50006E0064006400640064006E006400640061
:100B60006400640021007F00C00064006400AE00E7
:100B700064007F0064006400E50023681A0640F109
:100B800004810B6862691D1D0D601B681A600023DB
:100B900082462361CDF80090434603AA2146384699
:100BA000FFF71EFF013020D02369524641463846E8
:100BB000C847013019D02368E068039E9B0719D508
:100BC000831B002B16DD04F1190A002504E0E06800
:100BD000039E831BAB420DDD01235246414638463E
:100BE000C847013005F10105F1D14FF0FF3004B0E5
:100BF000BDE8F087B042B8BF304604B0BDE8F0872A
:100C0000012384F84220236104F1420A002384F87E
:100C10004330BFE723681A0602D45E0600F1C180A4
:100C20000D682A6804350D601546002A6BDBDFF875
:100C300084C10A2610E023681D0640F19C800B68E1
:100C40001D1D0D601D68DFF86CC16F2A0CBF0826E2
:100C50000A26002384F843306268A260002A7FDB02
:100C6000236823F004032360002D5BD1002A79D18F
:100C70008246082E65D0A0EB0A0020618AE70B6847
:100C80000122186804330B6004F1420A84F8420020
:100C90002261BBE70B686268181D0860D3F800A0EA
:100CA0000021504600F08CF8002800F08180A0EB75
:100CB0000A0060602061A9E7236843F020032360F5
:100CC0007822DFF8F4C084F845200A68151D0D600D
:100CD0001D0643D4590641D51588DE0744BF43F0AD
:100CE00020032360002D44D1236823F020032360D8
:100CF0001026AEE7582384F84530DFF8B8C02368E3
:100D0000E3E72368DCE76268A2602D21002AC5F1D1
:100D1000000584F8431002DB23F004032360DFF8AE
:100D200094C00A268246B5FBF6F306FB13512A4609
:100D30001CF801100AF8011DB2421D46F3D2082E1C
:100D400099D12368D90796D5626823699A4292DCC3
:100D500030230AF8013C0AF1FF3A8CE71568BCE73A
:100D6000002DDFD19CF8003084F8423004F1420AB3
:100D70007FE710266DE713F0400F0B6803F10405C1
:100D80000D600CBF1D681D885DE713F0400F0B68F8
:100D9000626903F104050D601B6814BF1A801A60B4
:100DA000F5E60A68B2F9005004320A602A463CE7C8
:100DB00060687FE7A0390008B4390008000000002F
:100DC00001F0FF01102A2BDB10F0070F08D010F8FC
:100DD000013B013A8B422DD010F0070F42B3F6D100
:100DE000F0B441EA012141EA014122F007047FF019
:100DF00000070023F0E80256083C85EA010586EA70
:100E0000010685FA47F5A3FA87F586FA47F6A5FAAB
:100E100087F68EB9EED1F0BC01F0FF0102F00702B7
:100E200032B110F8013B013A83EA010313B1F8D162
:100E30000020704701387047002D06BF3546033843
:100E4000073815F0010F07D1013015F4807F02BF7C
:100E5000013015F4C03F0130F0BC0138704700BFCD
:100E6000844641EA000313F003036DD1403A41D3B5
:100E700051F8043B40F8043B51F8043B40F8043B74
:100E800051F8043B40F8043B51F8043B40F8043B64
:100E900051F8043B40F8043B51F8043B40F8043B54
:100EA00051F8043B40F8043B51F8043B40F8043B44
:100EB00051F8043B40F8043B51F8043B40F8043B34
:100EC00051F8043B40F8043B51F8043B40F8043B24
:100ED00051F8043B40F8043B51F8043B40F8043B14
:100EE00051F8043B40F8043B51F8043B40F8043B04
:100EF000403ABDD2303211D351F8043B40F8043BA4
:100F000051F8043B40F8043B51F8043B40F8043BE3
:100F100051F8043B40F8043B103AEDD20C3205D3B3
:100F200051F8043B40F8043B043AF9D2043208D0AB
:100F3000D2071CBF11F8013B00F8013B01D30B881D
:100F400003806046704700BF082A13D38B078DD0FB
:100F500010F003038AD0C3F10403D21ADB071CBFCD
:100F600011F8013B00F8013B80D331F8023B20F837
:100F7000023B7BE7043AD9D3013A11F8013B00F870
:100F8000013BF9D20B7803704B7843708B788370F8
:100F90006046704788420DD98B1883420AD900EB0E
:100FA000020CBAB1624613F801CD02F801CD9942A4
:100FB000F9D170470F2A0ED8034602F1FF3C4AB11F
:100FC0000CF1010C013B8C4411F8012B03F8012FAB
:100FD0006145F9D1704740EA01039B0750D1A2F166
:100FE000100370B501F1200C23F00F0501F1100E74
:100FF00000F11004AC441B095EF8105C44F8105C6E
:101000005EF80C5C44F80C5C5EF8085C44F8085C24
:101010005EF8045C44F8045C0EF1100EE64504F141
:101020001004E9D1013312F00C0F01EB031102F0AF
:101030000F0400EB031327D0043C24F003064FEA0F
:10104000940C1E441C1F8E465EF8045B44F8045F3B
:10105000B442F9D10CF1010402F0030203EB840362
:1010600001EB840102F1FF3C4AB10CF1010C013BA0
:101070008C4411F8012B03F8012F6145F9D170BDA3
:1010800002F1FF3C03469BE72246EBE7002958D0DC
:1010900030B551F8043C83B0002BA1F10404B8BF73
:1010A000E418019000F0E8F8284A0198136833B179
:1010B000A3420DD9216804EB010C63452FD0636076
:1010C000146003B0BDE8304000F0D8B8A34210D897
:1010D0001A465B68002BF9D1116802EB010C6445DC
:1010E00019D02FD36360546003B0BDE8304000F0E6
:1010F000C5B8116802EB010CA44516D022D82168AE
:1011000004EB010C6345EDD11D685B682944C4E91B
:1011100000135460D5E7236819441160D1E71D68B6
:101120005B682944C4E90013CAE7246821445418C1
:10113000A3421160C5D1D3E900432144C2E90013A1
:10114000BFE770470C230360BBE700BF8C000020A3
:10115000F8B5CD1C25F0030508350C2D38BF0C253E
:10116000002D064623DBA94221D8254F00F084F844
:101170003A6822B3144603E063682246FBB11C467A
:1011800023685B1BF8D40B2B15D8636894420CBF03
:101190003B605360304600F071F804F10B00231DF2
:1011A00020F00700C21A01D01B1AA350F8BD0C236F
:1011B00033600020F8BD23601C442560EAE77968AD
:1011C000C9B12946304600F045F8431C0CD0C41C78
:1011D00024F00304A04205D0211A304600F03AF86A
:1011E000013001D02560D5E70C233046336000F094
:1011F00045F80020F8BD304600F02CF87860E0E7B4
:101200008C000020F8B51446F9B1CAB106460D4667
:1012100000F036F8A04202D32F463846F8BD2146EA
:101220003046FFF795FF07460028F6D022462946AC
:10123000FFF716FE30462946FFF728FF3846F8BD6F
:101240002746FFF723FF3846F8BDBDE8F8401146B2
:10125000FFF77EBF38B5074D0022044608462A60D6
:1012600000F018F8431C00D038BD2B68002BFBD0D1
:10127000236038BD94000020704700BF704700BF56
:1012800051F8040C0028A0F10400BCBF0B58C01892
:10129000704700BF044A05491368002B08BF0B467E
:1012A000184410601846704798000020A0020020E3
:1012B00053B94AB9002908BF00281CBF4FF0FF31BD
:1012C0004FF0FF3000F074B9ADF1080C6DE904CEB9
:1012D00000F006F8DDF804E0DDE9022304B0704711
:1012E0002DE9F047089D04468E46002B4DD18A42D9
:1012F000944669D9B2FA82F252B101FA02F3C2F10C
:10130000200120FA01F10CFA02FC41EA030E94409C
:101310004FEA1C48210CBEFBF8F61FFA8CF708FBBD
:1013200016E341EA034306FB07F199420AD91CEB95
:10133000030306F1FF3080F01F81994240F21C81C7
:10134000023E63445B1AA4B2B3FBF8F008FB10330F
:1013500044EA034400FB07F7A7420AD91CEB040444
:1013600000F1FF3380F00A81A74240F20781644414
:10137000023840EA0640E41B00261DB1D440002399
:10138000C5E900433146BDE8F0878B4209D9002DFD
:1013900000F0EF800026C5E9000130463146BDE887
:1013A000F087B3FA83F6002E4AD18B4202D38242F1
:1013B00000F2F980841A61EB030301209E46002DA0
:1013C000E0D0C5E9004EDDE702B9FFDEB2FA82F2F5
:1013D000002A40F09280A1EB0C014FEA1C471FFA53
:1013E0008CFE0126200CB1FBF7F307FB131140EA3A
:1013F00001410EFB03F0884208D91CEB010103F107
:10140000FF3802D2884200F2CB804346091AA4B2C8
:10141000B1FBF7F007FB101144EA01440EFB00FE9C
:10142000A64508D91CEB040400F1FF3102D2A64501
:1014300000F2BB800846A4EB0E0440EA03409CE7A0
:10144000C6F12007B34022FA07FC4CEA030C20FA4D
:1014500007F401FA06F31C43F9404FEA1C4900FA6D
:1014600006F3B1FBF9F8200C1FFA8CFE09FB1811EA
:1014700040EA014108FB0EF0884202FA06F20BD95D
:101480001CEB010108F1FF3A80F08880884240F2AD
:101490008580A8F102086144091AA4B2B1FBF9F0F1
:1014A00009FB101144EA014100FB0EFE8E4508D9EC
:1014B0001CEB010100F1FF346CD28E456AD9023871
:1014C000614440EA0840A0FB0294A1EB0E01A14256
:1014D000C846A64656D353D05DB1B3EB080261EBC4
:1014E0000E0101FA07F722FA06F3F1401F43C5E99E
:1014F000007100263146BDE8F087C2F12003D840D4
:101500000CFA02FC21FA03F3914001434FEA1C4715
:101510001FFA8CFEB3FBF7F007FB10360B0C43EA07
:10152000064300FB0EF69E4204FA02F408D91CEBB7
:10153000030300F1FF382FD29E422DD902386344B5
:101540009B1B89B2B3FBF7F607FB163341EA034155
:1015500006FB0EF38B4208D91CEB010106F1FF38A4
:1015600016D28B4214D9023E6144C91A46EA00469B
:1015700038E72E46284605E70646E3E61846F8E62D
:101580004B45A9D2B9EB020864EB0C0E0138A3E776
:101590004646EAE7204694E74046D1E7D0467BE757
:1015A000023B614432E7304609E76444023842E7CF
:1015B000704700BF72B6FEE700B595B03422002137
:1015C00007A8FEF775FE0023029303930493059387
:1015D000069300931F4A116C41F080511164126C04
:1015E00002F080520092009A01931B490A6822F48B
:1015F000404242F480420A600A6802F4404201928A
:10160000019A0222079201210A9110210B910D9259
:101610000E930F914FF4A873109304231193129219
:10162000139207A800F09AFD80B90F2302930221BC
:101630000391002304934FF480520592069302A86D
:1016400000F0FCFB20B915B05DF804FBFFF7B2FF1A
:10165000FFF7B0FF003802400070004008B501F00D
:1016600089F9FFF7A9FF00F00DF800F087F800F006
:1016700001F900F0F3FA00F0DDFA00F0EBFA00F007
:10168000AFF9FAE770B58AB0002405940694079480
:10169000089409940094344B1A6B42F004021A63C4
:1016A0001A6B02F004020092009A01941A6B42F045
:1016B00080021A631A6B02F080020192019A02946E
:1016C0001A6B42F001021A631A6B02F001020292D5
:1016D000029A03941A6B42F002021A631A6B02F028
:1016E00002020392039A04941A6B42F008021A63EE
:1016F0001B6B03F008030493049B1C4E224620211D
:10170000304601F039F843F6F97305930325069541
:10171000079405A9164800F043FF49F6D3730593D3
:101720000695079405A9304600F03AFF202305935B
:10173000012306930794089405A9304600F030FF72
:101740004FF2FF3305930695079405A9094800F069
:1017500027FF042305930695079405A9064800F082
:101760001FFF0AB070BD00BF0038024000000240F9
:101770000008024000040240000C024008B50D4879
:101780000D4B03604FF48273436000238360C3609A
:10179000036143614FF400728261C361036243627B
:1017A00083620A23C36200F0E9FA00B908BDFFF7BB
:1017B00001FFFBE79C000020003800402DE9F041CC
:1017C00088B000230393049305930693079302685C
:1017D000254B9A4202D008B0BDE8F0810024009465
:1017E00003F500331A6C42F480421A641A6C02F456
:1017F00080420092009A01941A6B42F004021A632C
:101800001A6B02F004020192019A02941A6B42F0E0
:1018100002021A631B6B03F002030293029B022570
:10182000039504950326069607230793DFF8408067
:1018300003A9404600F0B4FE0423039304950594E5
:1018400006960527079703A9404600F0A9FE4FF426
:1018500080630393049505940696079703A90348AC
:1018600000F09EFEB7E700BF0038004000040240D1
:101870000008024010B596B00024129413941494FA
:1018800015941094119409940A940B940C940D944B
:101890000E940F942022214601A8FEF709FD2A4844
:1018A0002A4B0360446084604FF6FF73C360046199
:1018B0004461846101F0B2F9002833D14FF48053C0
:1018C000129312A9204801F075FA00282DD11E4864
:1018D00001F0D0F900282BD100231093119310A907
:1018E000194801F0E7FA30BB002209920A920B92E4
:1018F0000C920D920E920F9209A9134801F01EFA54
:10190000E0B90023019302930393049305934FF4EA
:1019100000520692089301A90B4801F011FB80B90F
:1019200016B010BDFFF746FEC8E7FFF743FECEE74F
:10193000FFF740FED0E7FFF73DFED5E7FFF73AFEA1
:10194000DFE7FFF737FEEBE7F4000020000001407F
:101950000268094B9A4200D0704782B0002301937D
:10196000064B5A6C42F001025A645B6C03F00103AF
:101970000193019B02B07047000001400038024013
:10198000044B186040004FF47A73B3FBF0F0024B45
:1019900018607047480100203C01002008B5012272
:1019A000054B1A602021054800F0E6FE01F008F81A
:1019B000034B186008BD00BF440100200000024036
:1019C0004001002008B50022034B1A602021034883
:1019D00000F0D2FE08BD00BF44010020000002401C
:1019E00008B5124B1B6813B1114B1B680BB90020D3
:1019F00008BD00F0E5FF0F4B1B68984211D300F0C3
:101A0000DFFF0C4B1B680A4A126813449842EED958
:101A10002021094800F0B6FE00F0D2FF054B186007
:101A2000E5E700F0CDFF034B1860E8E74401002034
:101A30003C0100204001002000000240034B1B68D5
:101A40005B004FF47A70B0FBF3F070473C0100206C
:101A500008B5A02366220249024801F0F4FB08BD44
:101A6000AC3800085402002008B5FFF7F1FF024B24
:101A700000221A6008BD00BF4C02002010B584B0DF
:101A80003A4B1B681BB1012B49D004B010BD38483C
:101A9000FEF7E2FB03280AD0042839D0012839D008
:101AA000022848D1FFF78EFFFFF7DEFFEDE72F4B4F
:101AB00001221A60A02318222E492F4801F0C3FBEF
:101AC000E3E703F110026A44002102F80C1C013321
:101AD000092BF6D9FFF7B2FF0346284A0A2101A8CD
:101AE000FEF778FC244CA02313222549204601F060
:101AF000AAFBA0230A2201A9204601F0A4FBA023EF
:101B000003222049204601F09EFBFFF7ADFFBCE712
:101B10000023DDE7FFF742FFFFF7A6FFB5E7144814
:101B2000FEF79AFB00280CBF012400241AD1FFF70E
:101B30009BFF002CA9D0104CA0230A22124920465A
:101B400001F081FBA023114A12780949204601F0D7
:101B50007AFBA0231A220E49204601F074FBFFF7FE
:101B600083FF92E7FFF70CFFE1E700BF4C02002084
:101B70004C01002014390008540200202C390008C0
:101B80003039000844390008483900085202002062
:101B900054390008204B1B78002B3BD070B51F4BED
:101BA0001B78082B17D00D2B23D01D4C21781D48F6
:101BB0004354A023012201441B4801F044FB237835
:101BC00001332370144B00221A7001221349164866
:101BD00001F08DFD70BDA02303221449124801F0CD
:101BE00032FB0F4B1B78002BECD0013B0C4A1370DF
:101BF000E8E7A02302220E490B4801F024FB084C21
:101C00002378084E0025F554FFF738FF2023337062
:101C10002570D7E7704700BF500200205102002016
:101C2000520200204C0100205402002070390008AC
:101C30004439000808B50120FFF7A2FEFFF708FFAE
:101C400001220249024801F052FD08BD5102002064
:101C50005402002008B5FFF79DFF08BD08B50A48EB
:101C60000A4B03604FF4E133436000238360C36099
:101C700003610C2242618361C36101F0B5FA00B9CE
:101C800008BDFFF797FCFBE754020020004400402A
:101C900010B588B00023039304930593069307932C
:101CA0000268184B9A4201D008B010BD002401947C
:101CB00003F5FA331A6C42F400321A641A6C02F417
:101CC00000320192019A02941A6B42F001021A63E7
:101CD0001B6B03F001030293029B0C23039302236B
:101CE0000493032306930723079303A9064800F0F0
:101CF00057FC22462146262000F0BCFD262000F09D
:101D0000F1FDD1E70044004000000240FEE7FEE79D
:101D1000FEE7FEE7FEE770477047704708B500F042
:101D200043FE08BD08B5034B01221A70024801F0BA
:101D300081FB08BD500200205402002000B583B092
:101D4000002100910C4B5A6C42F480425A645A6C48
:101D500002F480420092009A01911A6C42F0805283
:101D60001A641B6C03F080530193019B072000F061
:101D70006FFD03B05DF804FB0038024000285AD024
:101D800010B50446436A33B94368B3F5827F05D082
:101D90000023C36102E00023036143610023A362C7
:101DA00094F85130002B40D0022384F8513022683F
:101DB000136823F040031360636803F48273A2681E
:101DC00002F404421343E26802F4006213432269FE
:101DD00002F002021343626902F001021343A26996
:101DE00002F400721343E26902F038021343226ADC
:101DF00002F080021343A26A02F4005221681343E6
:101E00000B60638B03F00403626A02F01002216826
:101E100013434B602268D36923F40063D36100202D
:101E20006065012384F8513010BD84F8503020469D
:101E3000FFF7C4FCB8E7012070470000002800F05D
:101E40009B8070B50D4604464F4B1B6803F00F0393
:101E50008B4208D2CBB24C4A1370136803F00F03C5
:101E60008B4240F08B80236813F0020F17D013F0E1
:101E7000040F04D0454A936843F4E0539360236809
:101E800013F0080F04D0414A936843F46043936011
:101E90003E4A936823F0F003A1680B4393602368E4
:101EA00013F0010F32D06368012B21D09A1E012A52
:101EB00025D9364A126812F0020F61D033498A6878
:101EC00022F0030213438B6000F07AFD06462F4B8D
:101ED0009B6803F00C036268B3EB820F16D000F02E
:101EE0006FFD801B41F288339842F0D9032042E015
:101EF000264A126812F4003FE0D101203BE0234A59
:101F0000126812F0007FD9D1012034E01E4B1B680B
:101F100003F00F03AB4207D9EAB21B4B1A701B68E0
:101F200003F00F03AB422DD1236813F0040F06D04A
:101F3000164A936823F4E053E1680B4393602368E7
:101F400013F0080F07D0114A936823F46043216906
:101F500043EAC103936000F047F80C4B9B68C3F35E
:101F600003130B4AD35CD8400A4B18600A4B18681D
:101F700000F0DAFC002070BD012070470120FAE774
:101F80000120F8E70120F6E7003C0240003802405B
:101F9000743900086C00002068000020014B1868AC
:101FA000704700BF6C00002008B5FFF7F7FF044B37
:101FB0009B68C3F38223034AD35CD84008BD00BFAB
:101FC000003802408439000808B5FFF7E7FF044BEA
:101FD0009B68C3F34233034AD35CD84008BD00BFBB
:101FE000003802408439000808B55A4B9B6803F05A
:101FF0000C03082B03D00C2B57D0574808BD554B6A
:102000005A6802F03F025B6813F4800F2AD0514BEC
:102010005968C1F3881C4FEA4C11B1EB0C006EEB10
:102020000E0E4FEA8E1343EA90638101091A63EBA7
:102030000E03DB0043EA5173C90011EB0C0C43F1B2
:102040000003990200234FEA8C2041EA9C51FFF7DC
:102050002FF9404B5B68C3F3014301335B00B0FBD6
:10206000F3F0CBE73B4B5968C1F3881C4FEA4C11A6
:10207000B1EB0C006EEB0E0E4FEA8E1343EA906349
:102080008101091A63EB0E03DB0043EA5173C900B7
:1020900011EB0C0C43F10003990200234FEA8C2052
:1020A00041EA9C51FFF704F9D3E72A4B5A6802F042
:1020B0003F025B6813F4800F28D0264B5968C1F3A8
:1020C000881C4FEA4C11B1EB0C006EEB0E0E4FEA80
:1020D0008E1343EA90638101091A63EB0E03DB0060
:1020E00043EA5173C90011EB0C0C43F10003990250
:1020F00000234FEA8C2041EA9C51FFF7D9F8154B99
:102100005B68C3F30273B0FBF3F077E7114B5968D8
:10211000C1F3881C4FEA4C11B1EB0C006EEB0E0EB4
:102120004FEA8E1343EA90638101091A63EB0E03B1
:10213000DB0043EA5173C90011EB0C0C43F10003BF
:10214000990200234FEA8C2041EA9C51FFF7B0F836
:10215000D5E700BF003802400024F400002800F05A
:10216000018270B582B00446036813F0010F41D0BC
:10217000994B9B6803F00C03042B32D0964B9B6861
:1021800003F00C03082B27D0934B9B6803F00C0340
:102190000C2B59D06368B3F5803F5BD0B3F5A02F0B
:1021A0005ED08D4B1A6822F480321A601A6822F4CD
:1021B00080221A606368002B5CD000F001FC0546A9
:1021C000854B1B6813F4003F14D100F0F9FB401B52
:1021D0006428F5D90320CCE17F4B5B6813F4800FB2
:1021E000D2D07D4B1B6813F4003F03D06368002BF3
:1021F00000F0BA81236813F0020F60D0764B9B6821
:1022000013F00C0F4AD0744B9B6803F00C03082B9F
:102210003FD0714B9B6803F00C030C2B69D0E36833
:10222000002B75D06D4B01221A6000F0C9FB0546EA
:10223000694B1B6813F0020F61D100F0C1FB401B1A
:102240000228F5D9032094E1634B5B6813F4800FF7
:10225000A0D0C6E7604A136843F480331360A9E74F
:102260005D4B1A6842F480221A601A6842F4803288
:102270001A609FE700F0A4FB0546574B1B6813F458
:10228000003FB7D000F09CFB401B6428F5D9032029
:102290006FE1514B5B6813F4800FBAD14E4B1B6852
:1022A00013F0020F03D0E368012B40F05F814A4A2C
:1022B000136823F0F803216943EAC103136023681C
:1022C00013F0080F49D06369002B33D0434B012230
:1022D000C3F8802E00F074FB05463F4B5B6F13F094
:1022E000020F3AD100F06CFB401B0228F5D9032005
:1022F0003FE1394B5B6813F4800F90D1CEE7364A4B
:10230000136823F0F803216943EAC1031360D6E799
:10231000324B00221A6000F053FB05462E4B1B681F
:1023200013F0020FCBD000F04BFB401B0228F5D975
:1023300003201EE1294B0022C3F8802E00F040FB51
:102340000546254B5B6F13F0020F06D000F038FBFB
:10235000401B0228F5D903200BE1236813F0040F7A
:1023600076D01D4B1B6C13F0805F33D1002301939B
:10237000194B1A6C42F080521A641B6C03F08053A4
:102380000193019B0125164B1B6813F4807F29D014
:10239000A368012B3AD0052B3ED00F4B1A6F22F0C9
:1023A00001021A671A6F22F004021A67A368002B51
:1023B0003CD000F005FB0646074B1B6F13F0020FE5
:1023C00045D100F0FDFA801B41F288339842F3D9E1
:1023D0000320CEE00025D6E7003802400000474247
:1023E000007000406B4A136843F48073136000F080
:1023F000E7FA0646674B1B6813F4807FC8D100F0EC
:10240000DFFA801B0228F5D90320B2E0624A136F7D
:1024100043F001031367C9E75F4B1A6F42F00402F0
:102420001A671A6F42F001021A67BFE700F0C8FA94
:102430000646594B1B6F13F0020F08D000F0C0FA8C
:10244000801B41F288339842F3D9032091E0EDB923
:10245000A369002B00F08C804F4A926802F00C02B6
:10246000082A54D0022B17D04C4B00221A6600F0D9
:10247000A7FA0446484B1B6813F0007F45D000F0D4
:102480009FFA001B0228F5D9032072E0424A136C20
:1024900023F080531364DBE7404B00221A6600F000
:1024A0008FFA05463C4B1B6813F0007F06D000F006
:1024B00087FA401B0228F5D903205AE0E369226A13
:1024C0001343626A43EA8213A26A5208013A43EA5A
:1024D0000243E26A43EA0263226B43EA02732E4A32
:1024E00053602E4B01221A6600F06AFA04462A4B0A
:1024F0001B6813F0007F06D100F062FA001B02286F
:10250000F5D9032035E0002033E0002031E0012B35
:1025100031D0214B5B6803F48001E26991422CD1F8
:1025200003F03F02216A8A4229D1616A47F6C072EC
:102530001A40B2EB811F24D103F44031A26A520841
:10254000013AB1EB024F1ED103F07062E16AB2EBC7
:10255000016F1AD103F0E043226BB3EB027F16D177
:10256000002006E001207047012002E0012000E089
:10257000002002B070BD0120FBE70120F9E7012037
:10258000F7E70120F5E70120F3E70120F1E701205B
:10259000EFE700BF007000400038024000004742F3
:1025A00000230F2B00F2DE8070B582B060E08568FA
:1025B0005E000324B44025EA0405CC68B4402C43F3
:1025C0008460456825EA02054C68C4F300129A400D
:1025D0002A4342605AE0DC08083450F8246003F0D3
:1025E000070295000F22AA4026EA020E0A69AA40B5
:1025F00042EA0E0240F824205CE0062200E00022BD
:1026000002FA0EF22A430234574D45F82420574A65
:1026100094686FEA0C0224EA0C054E6816F4801FD9
:1026200001D04CEA0405514CA560E46802EA0405B7
:102630004E6816F4001F01D04CEA04054B4CE560CF
:10264000646802EA04054E6816F4003F01D04CEAC3
:102650000405464C6560246822404D6815F4803FAF
:1026600001D04CEA0402414C226001330F2B77D891
:1026700001229A400C6804EA020C32EA0404F4D104
:102680004C6804F00304013C012C90D94A6802F024
:102690000302032A09D0C4685D000322AA4024EA89
:1026A00002048A68AA402243C2604A6802F0030218
:1026B000022A90D004684FEA430E032202FA0EF277
:1026C00024EA02044A6802F0030202FA0EF22243EC
:1026D00002604A6812F4403FC7D000220192244AA7
:1026E000546C44F480445464526C02F4804201926D
:1026F000019A9C08A51C1C4A52F8255003F00302BD
:102700004FEA820E0F2202FA0EF225EA0205194A5A
:1027100090423FF474AF02F58062904216D002F509
:102720008062904214D002F58062904212D002F58D
:102730008062904210D002F5806290420ED002F585
:10274000806290423FF459AF072259E7012257E7D0
:10275000022255E7032253E7042251E705224FE7FF
:1027600002B070BD704700BF00380140003C01401E
:1027700000380240000002400AB18161704709043C
:1027800081617047436901EA030221EA030141EADA
:1027900002418161704770B50446866D00F010F902
:1027A00094F83530DBB2022B06D08023636500231A
:1027B00084F83430012070BD05462268136823F088
:1027C000160313602268536923F080035361236C5E
:1027D000E3B12268136823F00803136022681368CA
:1027E00023F00103136023681B6813F0010F11D05D
:1027F00000F0E6F8431B052BF5D920236365032081
:1028000084F83500002384F83430D4E7A36C002B1F
:10281000DFD1E3E7E26D3F239340B360012384F807
:102820003530002084F83400C5E790F83530DBB24D
:10283000022B03D08023436501207047052380F8D5
:1028400035300268136823F00103136000207047DD
:10285000074AD36823F4E0631B041B0C000200F456
:10286000E060034343F0BF6343F40033D360704739
:1028700000ED00E000B5194BDB68C3F30223C3F1A0
:10288000070CBCF1040F28BF4FF0040C03F1040E39
:10289000BEF1060F18D9033B4FF0FF3E0EFA0CFCB9
:1028A00021EA0C0199400EFA03F322EA03031943CB
:1028B00000280BDB0901C9B200F1604000F561405E
:1028C00080F800135DF804FB0023E5E700F00F003B
:1028D0000901C9B2024B1954F4E700BF00ED00E052
:1028E00014ED00E0002807DB00F01F02400901237F
:1028F0009340024A42F82030704700BF00E100E0F8
:102900000138B0F1807F0BD24FF0E0235861054AC7
:10291000F02182F823100020986107221A61704785
:102920000120704700ED00E010B504460E4B18780A
:102930004FF47A73B3FBF0F30C4A1068B0FBF3F07A
:10294000FFF7DEFF68B90F2C01D901200AE0002251
:1029500021464FF0FF30FFF78DFF054B1C60002034
:1029600000E0012010BD00BF640000206C000020CA
:102970006800002008B50B4B1A6842F400721A6018
:102980001A6842F480621A601A6842F480721A600F
:102990000320FFF75DFF0020FFF7C6FFFFF7CEF92A
:1029A000002008BD003C0240034A1168034B1B781D
:1029B0000B441360704700BF9802002064000020A1
:1029C000014B1868704700BF9802002030B4036ABA
:1029D00023F001030362036A4268846924F07304EC
:1029E0000D682C4323F0020C8B6843EA0C03104D56
:1029F000A84203D005F58065A84205D123F008035D
:102A0000CD682B4323F00403094DA84203D005F5FC
:102A10008065A84205D122F440724D692A438D6930
:102A20002A43426084614A684263036230BC704753
:102A30000000014030B4036A23F480730362036A28
:102A40004268C46924F0730C0C6844EA0C0523F452
:102A500000738C6843EA0423114CA04203D004F5B0
:102A60008064A04206D123F40063CC6843EA0423C7
:102A700023F480630A4CA04203D004F58064A04292
:102A800007D122F440524C6942EA04128C6942EAAE
:102A900004124260C5614A68C263036230BC704779
:102AA0000000014030B4036A23F480530362036AD8
:102AB0004468C26922F4E6420D6842EA052223F422
:102AC00000538D6843EA0533094DA84203D005F54C
:102AD0008065A84204D124F480444D6944EA8514F9
:102AE0004460C2614A680264036230BC704700BF40
:102AF0000000014010B4036A046A24F00104046277
:102B0000846924F0F00C4CEA021223F00A030B4310
:102B1000826103625DF8044B704710B4046A24F0CC
:102B2000100404628469036A24F4704C4CEA023293
:102B300023F0A00343EA0113826103625DF8044BB2
:102B40007047836823F070030B4343F007038360EF
:102B5000704770470368304A904212D0B0F1804FFE
:102B60000FD0A2F57C4290420BD002F580629042D9
:102B700007D002F58062904203D002F5784290427D
:102B800003D123F070034A681343234A90422AD0AA
:102B9000B0F1804F27D0A2F57C42904223D002F5BD
:102BA000806290421FD002F5806290421BD002F5F5
:102BB0007842904217D002F57052904213D002F53D
:102BC000806290420FD002F5806290420BD0A2F555
:102BD0009832904207D002F58062904203D002F50D
:102BE0008062904203D123F44073CA68134323F0F8
:102BF00080034A69134303608B68C3620B68836276
:102C0000054B984203D003F58063984201D10B69CC
:102C100003630123436170470000014040B310B5D6
:102C2000044690F83D30F3B1022384F83D3021464C
:102C300051F8040BFFF78EFF012384F8463084F827
:102C40003E3084F83F3084F8403084F8413084F8D6
:102C5000423084F8433084F8443084F8453084F8B6
:102C60003D30002010BD80F83C30FEF771FEDBE700
:102C70000120704740B310B5044690F83D30F3B1E1
:102C8000022384F83D30214651F8040BFFF762FF20
:102C9000012384F8463084F83E3084F83F3084F8CD
:102CA000403084F8413084F8423084F8433084F86E
:102CB000443084F8453084F83D30002010BD80F861
:102CC0003C30FFF746FFDBE70120704730B4036A72
:102CD00023F010030362036A4468826922F4E64227
:102CE0000D6842EA052223F020038D6843EA0513AC
:102CF000114DA84203D005F58065A84206D123F006
:102D00008003CD6843EA051323F040030A4DA8422F
:102D100003D005F58065A84207D124F440644D69CD
:102D200044EA85048D6944EA8504446082614A6806
:102D30008263036230BC70470000014090F83C3071
:102D4000012B28D010B50446012380F83C300C2A12
:102D50001CD8DFE802F0071B1B1B0C1B1B1B111BE5
:102D60001B1B16000068FFF731FE00200FE0006813
:102D7000FFF7ACFF00200AE00068FFF75BFE0020D1
:102D800005E00068FFF78EFE002000E00120002330
:102D900084F83C3010BD0220704710B4846824F4DD
:102DA0007F4C42EA03220A4342EA0C0282605DF849
:102DB000044B704790F83C30012B78D010B5044696
:102DC000012380F83C30022380F83D30026893688C
:102DD00023F47F4323F0770393600B68602B4CD080
:102DE00029D8402B54D00CD9502B22D1CA6849681D
:102DF0000068FFF77FFE50212068FFF7A2FE002049
:102E000005E0202B0DD009D9302B0AD00120012359
:102E100084F83D30002384F83C3010BD0BB1102BFA
:102E200005D119462068FFF78CFE0020EFE701204E
:102E3000EDE70120EBE7B3F5805F34D0B3F5005F39
:102E40000CD1CB684A6889680068FFF7A6FF226842
:102E5000936843F4804393600020D8E7702B24D11B
:102E6000CB684A6889680068FFF797FF2268936813
:102E700043F0770393600020C9E7CA684968006897
:102E8000FFF74BFE60212068FFF75BFE0020BEE7E6
:102E9000CA6849680068FFF72DFE40212068FFF7E7
:102EA00050FE0020B3E70020B1E70120AFE7022089
:102EB0007047000090F83C30012B3DD010B4012346
:102EC00080F83C30022380F83D3003685A689C68E3
:102ED00022F0700C0A6842EA0C025A600368174A32
:102EE00093421AD0B3F1804F17D0A2F57C4293429F
:102EF00013D002F5806293420FD002F580629342B4
:102F00000BD002F57842934207D002F570529342FB
:102F100003D0A2F59432934204D124F080044A688D
:102F200014439C60012380F83D30002380F83C303E
:102F300018465DF8044B70470220704700000140BE
:102F400090F83C30012B22D0012380F83C30CB6834
:102F500023F440738A68134323F480634A6813435D
:102F600023F400630A68134323F480530A6913436C
:102F700023F400534A69134323F48043CA6913437B
:102F800002685364002380F83C30184670470220E2
:102F90007047026802F10C0353E8003F23F490737A
:102FA0000C3242E800310029F3D1026802F1140327
:102FB00053E8003F23F00103143242E800310029B6
:102FC000F3D1036B012B05D0202380F83E30002382
:102FD00003637047026802F10C0353E8003F23F0DB
:102FE00010030C3242E800310029F3D1ECE790F8ED
:102FF0003D30DBB2212B01D0022070478368B3F54E
:10300000805F17D0036A5A1C02621A7803685A60FC
:10301000C38C9BB2013B9BB2C3844BB90268D3689B
:1030200023F08003D3600268D36843F04003D36089
:10303000002070470369002BE4D1036A1B880268F3
:10304000C3F308035360036A02330362E0E700003E
:1030500038B504460268136923F44053C1680B4332
:10306000136183680269134342691343C2691A43B7
:103070000168CB6823F4164323F00C031343CB60A1
:103080000268536923F4407381690B4353610368F9
:10309000314A934206D002F58062934202D0FEF795
:1030A00083FF01E0FEF790FFE369B3F5004F29D0FD
:1030B0000021031849411B1841F10001C90041EAF0
:1030C0005371DB00181863684FEA83024FEA937369
:1030D00041F10001FEF7ECF8204DA5FB003251094B
:1030E000642303FB11031B013233A5FB03235B099C
:1030F00003F0F00202EB011203F00F032168134406
:103100008B6038BD0023021843EB0301121841F114
:103110000001C90041EA5271D200101841F10001CA
:10312000626892185B41FEF7C3F80C4DA5FB0032B4
:103130005109642303FB1103DB003233A5FB032396
:103140005B095A0002F4F87202EB011203F0070364
:10315000216813448B60D4E7001001401F85EB51B8
:103160002DE9F84305460F4616469946DDF82080BE
:103170002C68246837EA04030CBF4FF0010C4FF0B1
:10318000000CB4452DD1B8F1FF3FF1D0B8F1000FDC
:1031900005D0FFF715FCA0EB09004045E8D92A68E7
:1031A00002F10C0353E8003F23F4D0730C3242E8E1
:1031B00000310029F3D12A6802F1140353E8003FDB
:1031C00023F00103143242E800310029F3D1202317
:1031D00085F83D3085F83E30002385F83C300320EB
:1031E00000E00020BDE8F88358B310B5044690F81D
:1031F0003D300BB3242384F83D302268D36823F498
:103200000053D3602046FFF723FF2268136923F49D
:10321000904313612268536923F02A0353612268A3
:10322000D36843F40053D36000202064202384F843
:103230003D3084F83E3010BD80F83C30FEF728FD6C
:10324000D8E7012070472DE9F04182B01E4690F882
:103250003D30DBB2202B54D104460D469046002968
:1032600053D0002A53D090F83C30012B51D0012389
:1032700080F83C3000230364212380F83D30FFF7C1
:103280009FFB0746A4F82480A4F82680A368B3F522
:10329000805F05D04FF00008002384F83C3012E036
:1032A000236913B14FF00008F6E7A8460025F3E7BD
:1032B00038F8023B2268C3F308035360E28C92B2F1
:1032C000013A92B2E284E38C9BB273B100963B4622
:1032D000002280212046FFF743FFE0B9002DE7D010
:1032E00015F8012B23685A60E8E700963B46002258
:1032F00040212046FFF734FF78B9202384F83D3081
:1033000000E0022002B0BDE8F0810120FAE70120D0
:10331000F8E70220F6E70320F4E70320F2E770471E
:1033200008B50168CA6822F04002CA60202280F80D
:103330003D20FFF7F4FF002008BD7047704708B537
:10334000806B0023C385C384FFF7F8FF08BD704777
:1033500090F83E30DBB2222B67D18368B3F5805FF3
:103360004DD0826AB3F5805F04D0002B54D103693D
:10337000002B51D103685B681370836A0133836249
:10338000C38D9BB2013B9BB2C385002B4FD100B5CF
:1033900083B00268D36823F02003D3600268D36847
:1033A00023F48073D3600268536923F001035361EF
:1033B000202380F83E30036B012B33D100230363BD
:1033C000026802F10C0353E8003F23F010030C32B3
:1033D00042E800310029F3D103681A6812F0100F97
:1033E00006D0002201921A6801925B680193019B4A
:1033F000818DFFF7ACFF002003B05DF804FB02698C
:10340000002AAED1826A03685B68C3F308031380A5
:10341000836A02338362B3E703685B6803F07F0368
:103420001370AAE7FFF789FFE5E702207047002045
:103430007047000030B583B0044602681368D06856
:10344000516913F00F0505D113F0200F02D010F0D1
:10345000200F19D12DB111F0010119D110F4907F75
:1034600016D1216B01297DD013F0800F03D010F00D
:10347000800F40F0158113F0400F03D010F0400F83
:1034800040F0128103B030BD2046FFF761FFF9E73D
:1034900013F0010F06D010F4807F03D0226C42F0AD
:1034A0000102226413F0040F04D019B1226C42F01F
:1034B0000202226413F0020F04D019B1226C42F010
:1034C0000402226413F0080F07D010F0200F00D17F
:1034D00019B1226C42F008022264226C002AD1D079
:1034E00013F0200F02D010F0200F29D123685B6960
:1034F00003F04003226C12F0080F00D163B32046A2
:10350000FFF747FD23685B6913F0400F20D0226866
:1035100002F1140353E8003F23F04003143242E861
:1035200000310029F3D1A36B73B1614A1A65A06B16
:10353000FFF77BF90028A5D0A06B036D9847A1E7A2
:103540002046FFF705FFD1E72046FFF7F7FE99E792
:103550002046FFF7F3FE95E72046FFF7EFFE002336
:1035600023648FE713F0100F3FF47EAF10F0100FBD
:103570003FF47AAF002301931368019353680193DA
:10358000019B536913F0400F50D0A26B13685B6826
:103590009BB2002B3FF476AFA18D99427FF672AFBC
:1035A000E385D369B3F5807F37D0226802F10C033D
:1035B00053E8003F23F480730C3242E800310029C5
:1035C000F3D1226802F1140353E8003F23F0010312
:1035D000143242E800310029F3D1226802F11403C9
:1035E00053E8003F23F04003143242E80031002941
:1035F000F3D1202384F83E3000232363226802F1B4
:103600000C0353E8003F23F010030C3242E8003172
:103610000029F3D1A06BFFF7BEF8A18DE38D9BB21B
:10362000C91A89B22046FFF792FE2BE7A18DE38DE0
:103630009BB2C91A89B2E38D9BB2002B3FF422AF33
:1036400000293FF41FAF226802F10C0353E8003F4A
:1036500023F490730C3242E800300028F3D1226842
:1036600002F1140353E8003F23F00103143242E84F
:1036700000300028F3D1202384F83E300023236358
:10368000226802F10C0353E8003F23F010030C32D0
:1036900042E800300028F3D12046FFF758FEF1E65B
:1036A0002046FFF7A4FCEDE62046FFF739FEE9E6E9
:1036B0003F33000881628285C28500230364222291
:1036C00080F83E2080F83C30036923B10268D3685B
:1036D00043F48073D3600268536943F0010353617C
:1036E0000268D36843F02003D3600020704708B518
:1036F00090F83E30DBB2202B0DD171B17AB190F849
:103700003C30012B0DD0012380F83C3000230363B3
:10371000FFF7D0FF00E0022008BD0120FCE70120F8
:10372000FAE70220F8E70000034AD2F8883043F4B1
:103730007003C2F88830704700ED00E0DFF834D045
:103740000D480E490E4A002302E0D458C4500433F9
:10375000C4188C42F9D30B4A0B4C002301E01360D0
:103760000432A242FBD3FFF7DFFFFCF77DFDFDF73C
:1037700075FF70470000022000000020700000204C
:10378000D8390008700000209C020020FEE70000ED
:10379000F8B500BFF8BC08BC9E467047F8B500BF3E
:0837A000F8BC08BC9E4670470E
:1037A8000020202020202020202028282828282009
:1037B8002020202020202020202020202020202001
:1037C8002088101010101010101010101010101069
:1037D8001004040404040404040404101010101059
:1037E8001010414141414141010101010101010123
:1037F8000101010101010101010101011010101075
:1038080010104242424242420202020202020202F4
:103818000202020202020202020202021010101048
:103828002000000000000000000000000000000070
:103838000000000000000000000000000000000080
:103848000000000000000000000000000000000070
:103858000000000000000000000000000000000060
:103868000000000000000000000000000000000050
:103878000000000000000000000000000000000040
:103888000000000000000000000000000000000030
:103898000000000000000000000000000000000020
:1038A800000000000D0A456E74657220616E206F7D
:1038B8007074696F6E2E2E2E0D0A313A09456E61AD
:1038C800626C65204C45440D0A323A0944697361BB
:1038D800626C65204C45440D0A333A0953657420DF
:1038E8004C454420426C696E6B73706565640D0AC3
:1038F800343A0952656164204C454420426C696E33
:103908006B73706565640D0A0A0000000D0A456E48
:1039180074657220426C696E6B73706565642E2ED7
:103928002E0D0A00256400000D0A4C454420424C27
:10393800494E4B53504545443A0900000D0A0000D2
:103948000A4572726F723A202200000022206973C1
:10395800206E6F7420612076616C696420696E70D6
:1039680075742E0D0A0000000820080000000000F1
:103978000000000001020304060708090000000017
:1039880001020304232D302B20000000686C4C003A
:10399800656667454647000030313233343536377F
:1039A8003839414243444546000000003031323343
:1039B8003435363738396162636465660000000063
:0839C80018D9FF7F0100000087
:0439D00039020008B0
:0439D40011020008D4
:1039D80004000020000000000000000000000000BB
:1039E80000000000000000000000000000000000CF
:1039F80000000000000000000000000000000000BF
:103A080000000000000000000000000000000000AE
:103A1800000000000000000000000000000000009E
:103A2800000000000000000000000000000000008E
:103A38000000000001000000100000000024F40055
:040000050800373D7B
:00000001FF
